{
	"data": {
		"bytecode": {
			"linkReferences": {},
			"object": "6080604052348015600e575f5ffd5b50606a80601a5f395ff3fe6080604052348015600e575f5ffd5b50600436106026575f3560e01c8063d2dc79d314602a575b5f5ffd5b60306032565b005b56fea2646970667358221220c4f79ad0ef4e2323df665020edc300ef0ee3e2540fb989f193942b7bf6377da164736f6c634300081c0033",
			"opcodes": "PUSH1 0x80 PUSH1 0x40 MSTORE CALLVALUE DUP1 ISZERO PUSH1 0xE JUMPI PUSH0 PUSH0 REVERT JUMPDEST POP PUSH1 0x6A DUP1 PUSH1 0x1A PUSH0 CODECOPY PUSH0 RETURN INVALID PUSH1 0x80 PUSH1 0x40 MSTORE CALLVALUE DUP1 ISZERO PUSH1 0xE JUMPI PUSH0 PUSH0 REVERT JUMPDEST POP PUSH1 0x4 CALLDATASIZE LT PUSH1 0x26 JUMPI PUSH0 CALLDATALOAD PUSH1 0xE0 SHR DUP1 PUSH4 0xD2DC79D3 EQ PUSH1 0x2A JUMPI JUMPDEST PUSH0 PUSH0 REVERT JUMPDEST PUSH1 0x30 PUSH1 0x32 JUMP JUMPDEST STOP JUMPDEST JUMP INVALID LOG2 PUSH5 0x6970667358 0x22 SLT KECCAK256 0xC4 0xF7 SWAP11 0xD0 0xEF 0x4E 0x23 0x23 0xDF PUSH7 0x5020EDC300EF0E 0xE3 0xE2 SLOAD 0xF 0xB9 DUP10 CALL SWAP4 SWAP5 0x2B PUSH28 0xF6377DA164736F6C634300081C003300000000000000000000000000 "
		},
		"gasEstimates": {
			"creation": {
				"codeDepositCost": "21200",
				"executionCost": "73",
				"totalCost": "21273"
			},
			"external": {
				"createSimpleStorageFactory()": "121"
			}
		},
		"methodIdentifiers": {
			"createSimpleStorageFactory()": "d2dc79d3"
		}
	},
	"abi": [
		{
			"inputs": [],
			"name": "createSimpleStorageFactory",
			"outputs": [],
			"stateMutability": "nonpayable",
			"type": "function"
		}
	]
}