{
	"contracts/calculator.sol": {
		"calculator": {
			"abi": [
				{
					"constant": false,
					"inputs": [
						{
							"name": "divideAmount",
							"type": "uint256"
						}
					],
					"name": "Divider",
					"outputs": [],
					"payable": false,
					"stateMutability": "nonpayable",
					"type": "function"
				},
				{
					"constant": false,
					"inputs": [
						{
							"name": "subtractAmount",
							"type": "uint256"
						}
					],
					"name": "SubtractAmount",
					"outputs": [],
					"payable": false,
					"stateMutability": "nonpayable",
					"type": "function"
				},
				{
					"constant": false,
					"inputs": [
						{
							"name": "multiplyAmount",
							"type": "uint256"
						}
					],
					"name": "Multiplier",
					"outputs": [],
					"payable": false,
					"stateMutability": "nonpayable",
					"type": "function"
				},
				{
					"constant": false,
					"inputs": [
						{
							"name": "theNumber",
							"type": "uint256"
						}
					],
					"name": "Integer",
					"outputs": [],
					"payable": false,
					"stateMutability": "nonpayable",
					"type": "function"
				},
				{
					"constant": false,
					"inputs": [
						{
							"name": "addAmount",
							"type": "uint256"
						}
					],
					"name": "AddAmount",
					"outputs": [],
					"payable": false,
					"stateMutability": "nonpayable",
					"type": "function"
				},
				{
					"constant": true,
					"inputs": [],
					"name": "getAnswer",
					"outputs": [
						{
							"name": "",
							"type": "uint256"
						}
					],
					"payable": false,
					"stateMutability": "view",
					"type": "function"
				}
			],
			"devdoc": {
				"methods": {}
			},
			"evm": {
				"assembly": "    /* \"contracts/calculator.sol\":28:777  contract calculator{ \r... */\n  mstore(0x40, 0x60)\n  jumpi(tag_1, iszero(callvalue))\n  0x0\n  dup1\n  revert\ntag_1:\n  dataSize(sub_0)\n  dup1\n  dataOffset(sub_0)\n  0x0\n  codecopy\n  0x0\n  return\nstop\n\nsub_0: assembly {\n        /* \"contracts/calculator.sol\":28:777  contract calculator{ \r... */\n      mstore(0x40, 0x60)\n      jumpi(tag_1, lt(calldatasize, 0x4))\n      calldataload(0x0)\n      0x100000000000000000000000000000000000000000000000000000000\n      swap1\n      div\n      0xffffffff\n      and\n      dup1\n      0x4793504e\n      eq\n      tag_2\n      jumpi\n      dup1\n      0x53a454e0\n      eq\n      tag_3\n      jumpi\n      dup1\n      0x5677abcc\n      eq\n      tag_4\n      jumpi\n      dup1\n      0x6a270ba1\n      eq\n      tag_5\n      jumpi\n      dup1\n      0x7d89f040\n      eq\n      tag_6\n      jumpi\n      dup1\n      0x9c16667c\n      eq\n      tag_7\n      jumpi\n    tag_1:\n      0x0\n      dup1\n      revert\n        /* \"contracts/calculator.sol\":347:454  function Divider(uint divideAmount){ \r... */\n    tag_2:\n      jumpi(tag_8, iszero(callvalue))\n      0x0\n      dup1\n      revert\n    tag_8:\n      tag_9\n      0x4\n      dup1\n      dup1\n      calldataload\n      swap1\n      0x20\n      add\n      swap1\n      swap2\n      swap1\n      pop\n      pop\n      jump(tag_10)\n    tag_9:\n      stop\n        /* \"contracts/calculator.sol\":570:692  function SubtractAmount(uint subtractAmount){ \r... */\n    tag_3:\n      jumpi(tag_11, iszero(callvalue))\n      0x0\n      dup1\n      revert\n    tag_11:\n      tag_12\n      0x4\n      dup1\n      dup1\n      calldataload\n      swap1\n      0x20\n      add\n      swap1\n      swap2\n      swap1\n      pop\n      pop\n      jump(tag_13)\n    tag_12:\n      stop\n        /* \"contracts/calculator.sol\":220:338  function Multiplier(uint multiplyAmount){ \r... */\n    tag_4:\n      jumpi(tag_14, iszero(callvalue))\n      0x0\n      dup1\n      revert\n    tag_14:\n      tag_15\n      0x4\n      dup1\n      dup1\n      calldataload\n      swap1\n      0x20\n      add\n      swap1\n      swap2\n      swap1\n      pop\n      pop\n      jump(tag_16)\n    tag_15:\n      stop\n        /* \"contracts/calculator.sol\":148:211  function Integer(uint theNumber){ \r... */\n    tag_5:\n      jumpi(tag_17, iszero(callvalue))\n      0x0\n      dup1\n      revert\n    tag_17:\n      tag_18\n      0x4\n      dup1\n      dup1\n      calldataload\n      swap1\n      0x20\n      add\n      swap1\n      swap2\n      swap1\n      pop\n      pop\n      jump(tag_19)\n    tag_18:\n      stop\n        /* \"contracts/calculator.sol\":463:561  function AddAmount(uint addAmount){ \r... */\n    tag_6:\n      jumpi(tag_20, iszero(callvalue))\n      0x0\n      dup1\n      revert\n    tag_20:\n      tag_21\n      0x4\n      dup1\n      dup1\n      calldataload\n      swap1\n      0x20\n      add\n      swap1\n      swap2\n      swap1\n      pop\n      pop\n      jump(tag_22)\n    tag_21:\n      stop\n        /* \"contracts/calculator.sol\":701:771  function getAnswer() constant returns (uint){ \r... */\n    tag_7:\n      jumpi(tag_23, iszero(callvalue))\n      0x0\n      dup1\n      revert\n    tag_23:\n      tag_24\n      jump(tag_25)\n    tag_24:\n      mload(0x40)\n      dup1\n      dup3\n      dup2\n      mstore\n      0x20\n      add\n      swap2\n      pop\n      pop\n      mload(0x40)\n      dup1\n      swap2\n      sub\n      swap1\n      return\n        /* \"contracts/calculator.sol\":347:454  function Divider(uint divideAmount){ \r... */\n    tag_10:\n        /* \"contracts/calculator.sol\":435:447  divideAmount */\n      dup1\n        /* \"contracts/calculator.sol\":426:432  number */\n      sload(0x0)\n        /* \"contracts/calculator.sol\":426:447  number / divideAmount */\n      dup2\n      iszero\n      iszero\n      tag_27\n      jumpi\n      invalid\n    tag_27:\n      div\n        /* \"contracts/calculator.sol\":417:423  number */\n      0x0\n        /* \"contracts/calculator.sol\":417:447  number = number / divideAmount */\n      dup2\n      swap1\n      sstore\n      pop\n        /* \"contracts/calculator.sol\":347:454  function Divider(uint divideAmount){ \r... */\n      pop\n      jump\t// out\n        /* \"contracts/calculator.sol\":570:692  function SubtractAmount(uint subtractAmount){ \r... */\n    tag_13:\n        /* \"contracts/calculator.sol\":671:685  subtractAmount */\n      dup1\n        /* \"contracts/calculator.sol\":662:668  number */\n      sload(0x0)\n        /* \"contracts/calculator.sol\":662:685  number - subtractAmount */\n      sub\n        /* \"contracts/calculator.sol\":653:659  number */\n      0x0\n        /* \"contracts/calculator.sol\":653:685  number = number - subtractAmount */\n      dup2\n      swap1\n      sstore\n      pop\n        /* \"contracts/calculator.sol\":570:692  function SubtractAmount(uint subtractAmount){ \r... */\n      pop\n      jump\t// out\n        /* \"contracts/calculator.sol\":220:338  function Multiplier(uint multiplyAmount){ \r... */\n    tag_16:\n        /* \"contracts/calculator.sol\":317:331  multiplyAmount */\n      dup1\n        /* \"contracts/calculator.sol\":308:314  number */\n      sload(0x0)\n        /* \"contracts/calculator.sol\":308:331  number * multiplyAmount */\n      mul\n        /* \"contracts/calculator.sol\":299:305  number */\n      0x0\n        /* \"contracts/calculator.sol\":299:331  number = number * multiplyAmount */\n      dup2\n      swap1\n      sstore\n      pop\n        /* \"contracts/calculator.sol\":220:338  function Multiplier(uint multiplyAmount){ \r... */\n      pop\n      jump\t// out\n        /* \"contracts/calculator.sol\":148:211  function Integer(uint theNumber){ \r... */\n    tag_19:\n        /* \"contracts/calculator.sol\":195:204  theNumber */\n      dup1\n        /* \"contracts/calculator.sol\":186:192  number */\n      0x0\n        /* \"contracts/calculator.sol\":186:204  number = theNumber */\n      dup2\n      swap1\n      sstore\n      pop\n        /* \"contracts/calculator.sol\":148:211  function Integer(uint theNumber){ \r... */\n      pop\n      jump\t// out\n        /* \"contracts/calculator.sol\":463:561  function AddAmount(uint addAmount){ \r... */\n    tag_22:\n        /* \"contracts/calculator.sol\":545:554  addAmount */\n      dup1\n        /* \"contracts/calculator.sol\":536:542  number */\n      sload(0x0)\n        /* \"contracts/calculator.sol\":536:554  number + addAmount */\n      add\n        /* \"contracts/calculator.sol\":527:533  number */\n      0x0\n        /* \"contracts/calculator.sol\":527:554  number = number + addAmount */\n      dup2\n      swap1\n      sstore\n      pop\n        /* \"contracts/calculator.sol\":463:561  function AddAmount(uint addAmount){ \r... */\n      pop\n      jump\t// out\n        /* \"contracts/calculator.sol\":701:771  function getAnswer() constant returns (uint){ \r... */\n    tag_25:\n        /* \"contracts/calculator.sol\":740:744  uint */\n      0x0\n        /* \"contracts/calculator.sol\":758:764  number */\n      dup1\n      sload\n        /* \"contracts/calculator.sol\":751:764  return number */\n      swap1\n      pop\n        /* \"contracts/calculator.sol\":701:771  function getAnswer() constant returns (uint){ \r... */\n      swap1\n      jump\t// out\n\n    auxdata: 0xa165627a7a72305820b0eaa572649a0ede68d5365b7daad1303c48d615a6aab0ce248b0219e51db1db0029\n}\n",
				"bytecode": {
					"linkReferences": {},
					"object": "6060604052341561000f57600080fd5b6101d58061001e6000396000f300606060405260043610610078576000357c0100000000000000000000000000000000000000000000000000000000900463ffffffff1680634793504e1461007d57806353a454e0146100a05780635677abcc146100c35780636a270ba1146100e65780637d89f040146101095780639c16667c1461012c575b600080fd5b341561008857600080fd5b61009e6004808035906020019091905050610155565b005b34156100ab57600080fd5b6100c1600480803590602001909190505061016c565b005b34156100ce57600080fd5b6100e4600480803590602001909190505061017a565b005b34156100f157600080fd5b6101076004808035906020019091905050610188565b005b341561011457600080fd5b61012a6004808035906020019091905050610192565b005b341561013757600080fd5b61013f6101a0565b6040518082815260200191505060405180910390f35b8060005481151561016257fe5b0460008190555050565b806000540360008190555050565b806000540260008190555050565b8060008190555050565b806000540160008190555050565b600080549050905600a165627a7a72305820b0eaa572649a0ede68d5365b7daad1303c48d615a6aab0ce248b0219e51db1db0029",
					"opcodes": "PUSH1 0x60 PUSH1 0x40 MSTORE CALLVALUE ISZERO PUSH2 0xF JUMPI PUSH1 0x0 DUP1 REVERT JUMPDEST PUSH2 0x1D5 DUP1 PUSH2 0x1E PUSH1 0x0 CODECOPY PUSH1 0x0 RETURN STOP PUSH1 0x60 PUSH1 0x40 MSTORE PUSH1 0x4 CALLDATASIZE LT PUSH2 0x78 JUMPI PUSH1 0x0 CALLDATALOAD PUSH29 0x100000000000000000000000000000000000000000000000000000000 SWAP1 DIV PUSH4 0xFFFFFFFF AND DUP1 PUSH4 0x4793504E EQ PUSH2 0x7D JUMPI DUP1 PUSH4 0x53A454E0 EQ PUSH2 0xA0 JUMPI DUP1 PUSH4 0x5677ABCC EQ PUSH2 0xC3 JUMPI DUP1 PUSH4 0x6A270BA1 EQ PUSH2 0xE6 JUMPI DUP1 PUSH4 0x7D89F040 EQ PUSH2 0x109 JUMPI DUP1 PUSH4 0x9C16667C EQ PUSH2 0x12C JUMPI JUMPDEST PUSH1 0x0 DUP1 REVERT JUMPDEST CALLVALUE ISZERO PUSH2 0x88 JUMPI PUSH1 0x0 DUP1 REVERT JUMPDEST PUSH2 0x9E PUSH1 0x4 DUP1 DUP1 CALLDATALOAD SWAP1 PUSH1 0x20 ADD SWAP1 SWAP2 SWAP1 POP POP PUSH2 0x155 JUMP JUMPDEST STOP JUMPDEST CALLVALUE ISZERO PUSH2 0xAB JUMPI PUSH1 0x0 DUP1 REVERT JUMPDEST PUSH2 0xC1 PUSH1 0x4 DUP1 DUP1 CALLDATALOAD SWAP1 PUSH1 0x20 ADD SWAP1 SWAP2 SWAP1 POP POP PUSH2 0x16C JUMP JUMPDEST STOP JUMPDEST CALLVALUE ISZERO PUSH2 0xCE JUMPI PUSH1 0x0 DUP1 REVERT JUMPDEST PUSH2 0xE4 PUSH1 0x4 DUP1 DUP1 CALLDATALOAD SWAP1 PUSH1 0x20 ADD SWAP1 SWAP2 SWAP1 POP POP PUSH2 0x17A JUMP JUMPDEST STOP JUMPDEST CALLVALUE ISZERO PUSH2 0xF1 JUMPI PUSH1 0x0 DUP1 REVERT JUMPDEST PUSH2 0x107 PUSH1 0x4 DUP1 DUP1 CALLDATALOAD SWAP1 PUSH1 0x20 ADD SWAP1 SWAP2 SWAP1 POP POP PUSH2 0x188 JUMP JUMPDEST STOP JUMPDEST CALLVALUE ISZERO PUSH2 0x114 JUMPI PUSH1 0x0 DUP1 REVERT JUMPDEST PUSH2 0x12A PUSH1 0x4 DUP1 DUP1 CALLDATALOAD SWAP1 PUSH1 0x20 ADD SWAP1 SWAP2 SWAP1 POP POP PUSH2 0x192 JUMP JUMPDEST STOP JUMPDEST CALLVALUE ISZERO PUSH2 0x137 JUMPI PUSH1 0x0 DUP1 REVERT JUMPDEST PUSH2 0x13F PUSH2 0x1A0 JUMP JUMPDEST PUSH1 0x40 MLOAD DUP1 DUP3 DUP2 MSTORE PUSH1 0x20 ADD SWAP2 POP POP PUSH1 0x40 MLOAD DUP1 SWAP2 SUB SWAP1 RETURN JUMPDEST DUP1 PUSH1 0x0 SLOAD DUP2 ISZERO ISZERO PUSH2 0x162 JUMPI INVALID JUMPDEST DIV PUSH1 0x0 DUP2 SWAP1 SSTORE POP POP JUMP JUMPDEST DUP1 PUSH1 0x0 SLOAD SUB PUSH1 0x0 DUP2 SWAP1 SSTORE POP POP JUMP JUMPDEST DUP1 PUSH1 0x0 SLOAD MUL PUSH1 0x0 DUP2 SWAP1 SSTORE POP POP JUMP JUMPDEST DUP1 PUSH1 0x0 DUP2 SWAP1 SSTORE POP POP JUMP JUMPDEST DUP1 PUSH1 0x0 SLOAD ADD PUSH1 0x0 DUP2 SWAP1 SSTORE POP POP JUMP JUMPDEST PUSH1 0x0 DUP1 SLOAD SWAP1 POP SWAP1 JUMP STOP LOG1 PUSH6 0x627A7A723058 KECCAK256 0xb0 0xea 0xa5 PUSH19 0x649A0EDE68D5365B7DAAD1303C48D615A6AAB0 0xce 0x24 DUP12 MUL NOT 0xe5 0x1d 0xb1 0xdb STOP 0x29 "
				},
				"gasEstimates": {
					"creation": {
						"codeDepositCost": "93800",
						"executionCost": "136",
						"totalCost": "93936"
					},
					"external": {
						"AddAmount(uint256)": "20472",
						"Divider(uint256)": "20409",
						"Integer(uint256)": "20244",
						"Multiplier(uint256)": "20430",
						"SubtractAmount(uint256)": "20406",
						"getAnswer()": "504"
					}
				},
				"methodIdentifiers": {
					"AddAmount(uint256)": "7d89f040",
					"Divider(uint256)": "4793504e",
					"Integer(uint256)": "6a270ba1",
					"Multiplier(uint256)": "5677abcc",
					"SubtractAmount(uint256)": "53a454e0",
					"getAnswer()": "9c16667c"
				}
			},
			"userdoc": {
				"methods": {}
			}
		}
	}
}