{
	"contracts/enum1.sol": {
		"Voting": {
			"abi": [
				{
					"inputs": [
						{
							"internalType": "enum Voting.Candidate",
							"name": "_candidate",
							"type": "uint8"
						}
					],
					"name": "getVotes",
					"outputs": [
						{
							"internalType": "uint256",
							"name": "",
							"type": "uint256"
						}
					],
					"stateMutability": "view",
					"type": "function"
				},
				{
					"inputs": [],
					"name": "getWinner",
					"outputs": [
						{
							"internalType": "enum Voting.Candidate",
							"name": "",
							"type": "uint8"
						}
					],
					"stateMutability": "view",
					"type": "function"
				},
				{
					"inputs": [
						{
							"internalType": "enum Voting.Candidate",
							"name": "_candidate",
							"type": "uint8"
						}
					],
					"name": "vote",
					"outputs": [],
					"stateMutability": "nonpayable",
					"type": "function"
				},
				{
					"inputs": [
						{
							"internalType": "enum Voting.Candidate",
							"name": "",
							"type": "uint8"
						}
					],
					"name": "votes",
					"outputs": [
						{
							"internalType": "uint256",
							"name": "",
							"type": "uint256"
						}
					],
					"stateMutability": "view",
					"type": "function"
				}
			],
			"devdoc": {
				"kind": "dev",
				"methods": {},
				"version": 1
			},
			"evm": {
				"assembly": "    /* \"contracts/enum1.sol\":60:1145  contract Voting {... */\n  mstore(0x40, 0x80)\n  callvalue\n  dup1\n  iszero\n  tag_1\n  jumpi\n  0x00\n  dup1\n  revert\ntag_1:\n  pop\n  dataSize(sub_0)\n  dup1\n  dataOffset(sub_0)\n  0x00\n  codecopy\n  0x00\n  return\nstop\n\nsub_0: assembly {\n        /* \"contracts/enum1.sol\":60:1145  contract Voting {... */\n      mstore(0x40, 0x80)\n      callvalue\n      dup1\n      iszero\n      tag_1\n      jumpi\n      0x00\n      dup1\n      revert\n    tag_1:\n      pop\n      jumpi(tag_2, lt(calldatasize, 0x04))\n      shr(0xe0, calldataload(0x00))\n      dup1\n      0x8953bb72\n      eq\n      tag_3\n      jumpi\n      dup1\n      0x8e7ea5b2\n      eq\n      tag_4\n      jumpi\n      dup1\n      0xb3f98adc\n      eq\n      tag_5\n      jumpi\n      dup1\n      0xc1b43357\n      eq\n      tag_6\n      jumpi\n    tag_2:\n      0x00\n      dup1\n      revert\n        /* \"contracts/enum1.sol\":542:652  function getVotes(Candidate _candidate) public view returns (uint) {... */\n    tag_3:\n      tag_7\n      0x04\n      dup1\n      calldatasize\n      sub\n      dup2\n      add\n      swap1\n      tag_8\n      swap2\n      swap1\n      tag_9\n      jump\t// in\n    tag_8:\n      tag_10\n      jump\t// in\n    tag_7:\n      mload(0x40)\n      tag_11\n      swap2\n      swap1\n      tag_12\n      jump\t// in\n    tag_11:\n      mload(0x40)\n      dup1\n      swap2\n      sub\n      swap1\n      return\n        /* \"contracts/enum1.sol\":706:1142  function getWinner() public view returns (Candidate) {... */\n    tag_4:\n      tag_13\n      tag_14\n      jump\t// in\n    tag_13:\n      mload(0x40)\n      tag_15\n      swap2\n      swap1\n      tag_16\n      jump\t// in\n    tag_15:\n      mload(0x40)\n      dup1\n      swap2\n      sub\n      swap1\n      return\n        /* \"contracts/enum1.sol\":320:465  function vote(Candidate _candidate) public {... */\n    tag_5:\n      tag_17\n      0x04\n      dup1\n      calldatasize\n      sub\n      dup2\n      add\n      swap1\n      tag_18\n      swap2\n      swap1\n      tag_9\n      jump\t// in\n    tag_18:\n      tag_19\n      jump\t// in\n    tag_17:\n      stop\n        /* \"contracts/enum1.sol\":231:270  mapping(Candidate => uint) public votes */\n    tag_6:\n      tag_20\n      0x04\n      dup1\n      calldatasize\n      sub\n      dup2\n      add\n      swap1\n      tag_21\n      swap2\n      swap1\n      tag_9\n      jump\t// in\n    tag_21:\n      tag_22\n      jump\t// in\n    tag_20:\n      mload(0x40)\n      tag_23\n      swap2\n      swap1\n      tag_12\n      jump\t// in\n    tag_23:\n      mload(0x40)\n      dup1\n      swap2\n      sub\n      swap1\n      return\n        /* \"contracts/enum1.sol\":542:652  function getVotes(Candidate _candidate) public view returns (uint) {... */\n    tag_10:\n        /* \"contracts/enum1.sol\":603:607  uint */\n      0x00\n        /* \"contracts/enum1.sol\":627:632  votes */\n      dup1\n        /* \"contracts/enum1.sol\":627:644  votes[_candidate] */\n      0x00\n        /* \"contracts/enum1.sol\":633:643  _candidate */\n      dup4\n        /* \"contracts/enum1.sol\":627:644  votes[_candidate] */\n      0x02\n      dup2\n      gt\n      iszero\n      tag_25\n      jumpi\n      tag_26\n      tag_27\n      jump\t// in\n    tag_26:\n    tag_25:\n      0x02\n      dup2\n      gt\n      iszero\n      tag_28\n      jumpi\n      tag_29\n      tag_27\n      jump\t// in\n    tag_29:\n    tag_28:\n      dup2\n      mstore\n      0x20\n      add\n      swap1\n      dup2\n      mstore\n      0x20\n      add\n      0x00\n      keccak256\n      sload\n        /* \"contracts/enum1.sol\":620:644  return votes[_candidate] */\n      swap1\n      pop\n        /* \"contracts/enum1.sol\":542:652  function getVotes(Candidate _candidate) public view returns (uint) {... */\n      swap2\n      swap1\n      pop\n      jump\t// out\n        /* \"contracts/enum1.sol\":706:1142  function getWinner() public view returns (Candidate) {... */\n    tag_14:\n        /* \"contracts/enum1.sol\":748:757  Candidate */\n      0x00\n        /* \"contracts/enum1.sol\":799:804  votes */\n      dup1\n        /* \"contracts/enum1.sol\":799:819  votes[Candidate.Bob] */\n      0x00\n        /* \"contracts/enum1.sol\":805:818  Candidate.Bob */\n      0x01\n        /* \"contracts/enum1.sol\":799:819  votes[Candidate.Bob] */\n      0x02\n      dup2\n      gt\n      iszero\n      tag_31\n      jumpi\n      tag_32\n      tag_27\n      jump\t// in\n    tag_32:\n    tag_31:\n      0x02\n      dup2\n      gt\n      iszero\n      tag_33\n      jumpi\n      tag_34\n      tag_27\n      jump\t// in\n    tag_34:\n    tag_33:\n      dup2\n      mstore\n      0x20\n      add\n      swap1\n      dup2\n      mstore\n      0x20\n      add\n      0x00\n      keccak256\n      sload\n        /* \"contracts/enum1.sol\":774:779  votes */\n      0x00\n        /* \"contracts/enum1.sol\":774:796  votes[Candidate.Alice] */\n      dup1\n        /* \"contracts/enum1.sol\":780:795  Candidate.Alice */\n      dup1\n        /* \"contracts/enum1.sol\":774:796  votes[Candidate.Alice] */\n      0x02\n      dup2\n      gt\n      iszero\n      tag_35\n      jumpi\n      tag_36\n      tag_27\n      jump\t// in\n    tag_36:\n    tag_35:\n      0x02\n      dup2\n      gt\n      iszero\n      tag_37\n      jumpi\n      tag_38\n      tag_27\n      jump\t// in\n    tag_38:\n    tag_37:\n      dup2\n      mstore\n      0x20\n      add\n      swap1\n      dup2\n      mstore\n      0x20\n      add\n      0x00\n      keccak256\n      sload\n        /* \"contracts/enum1.sol\":774:819  votes[Candidate.Alice] > votes[Candidate.Bob] */\n      gt\n        /* \"contracts/enum1.sol\":774:872  votes[Candidate.Alice] > votes[Candidate.Bob] && votes[Candidate.Alice] > votes[Candidate.Charlie] */\n      dup1\n      iszero\n      tag_39\n      jumpi\n      pop\n        /* \"contracts/enum1.sol\":848:853  votes */\n      0x00\n        /* \"contracts/enum1.sol\":848:872  votes[Candidate.Charlie] */\n      dup1\n        /* \"contracts/enum1.sol\":854:871  Candidate.Charlie */\n      0x02\n        /* \"contracts/enum1.sol\":848:872  votes[Candidate.Charlie] */\n      dup1\n      dup2\n      gt\n      iszero\n      tag_40\n      jumpi\n      tag_41\n      tag_27\n      jump\t// in\n    tag_41:\n    tag_40:\n      0x02\n      dup2\n      gt\n      iszero\n      tag_42\n      jumpi\n      tag_43\n      tag_27\n      jump\t// in\n    tag_43:\n    tag_42:\n      dup2\n      mstore\n      0x20\n      add\n      swap1\n      dup2\n      mstore\n      0x20\n      add\n      0x00\n      keccak256\n      sload\n        /* \"contracts/enum1.sol\":823:828  votes */\n      0x00\n        /* \"contracts/enum1.sol\":823:845  votes[Candidate.Alice] */\n      dup1\n        /* \"contracts/enum1.sol\":829:844  Candidate.Alice */\n      dup1\n        /* \"contracts/enum1.sol\":823:845  votes[Candidate.Alice] */\n      0x02\n      dup2\n      gt\n      iszero\n      tag_44\n      jumpi\n      tag_45\n      tag_27\n      jump\t// in\n    tag_45:\n    tag_44:\n      0x02\n      dup2\n      gt\n      iszero\n      tag_46\n      jumpi\n      tag_47\n      tag_27\n      jump\t// in\n    tag_47:\n    tag_46:\n      dup2\n      mstore\n      0x20\n      add\n      swap1\n      dup2\n      mstore\n      0x20\n      add\n      0x00\n      keccak256\n      sload\n        /* \"contracts/enum1.sol\":823:872  votes[Candidate.Alice] > votes[Candidate.Charlie] */\n      gt\n        /* \"contracts/enum1.sol\":774:872  votes[Candidate.Alice] > votes[Candidate.Bob] && votes[Candidate.Alice] > votes[Candidate.Charlie] */\n    tag_39:\n        /* \"contracts/enum1.sol\":770:1135  if (votes[Candidate.Alice] > votes[Candidate.Bob] && votes[Candidate.Alice] > votes[Candidate.Charlie]) {... */\n      iszero\n      tag_48\n      jumpi\n        /* \"contracts/enum1.sol\":896:911  Candidate.Alice */\n      0x00\n        /* \"contracts/enum1.sol\":889:911  return Candidate.Alice */\n      swap1\n      pop\n      jump(tag_30)\n        /* \"contracts/enum1.sol\":770:1135  if (votes[Candidate.Alice] > votes[Candidate.Bob] && votes[Candidate.Alice] > votes[Candidate.Charlie]) {... */\n    tag_48:\n        /* \"contracts/enum1.sol\":956:961  votes */\n      0x00\n        /* \"contracts/enum1.sol\":956:978  votes[Candidate.Alice] */\n      dup1\n        /* \"contracts/enum1.sol\":962:977  Candidate.Alice */\n      dup1\n        /* \"contracts/enum1.sol\":956:978  votes[Candidate.Alice] */\n      0x02\n      dup2\n      gt\n      iszero\n      tag_50\n      jumpi\n      tag_51\n      tag_27\n      jump\t// in\n    tag_51:\n    tag_50:\n      0x02\n      dup2\n      gt\n      iszero\n      tag_52\n      jumpi\n      tag_53\n      tag_27\n      jump\t// in\n    tag_53:\n    tag_52:\n      dup2\n      mstore\n      0x20\n      add\n      swap1\n      dup2\n      mstore\n      0x20\n      add\n      0x00\n      keccak256\n      sload\n        /* \"contracts/enum1.sol\":933:938  votes */\n      0x00\n        /* \"contracts/enum1.sol\":933:953  votes[Candidate.Bob] */\n      dup1\n        /* \"contracts/enum1.sol\":939:952  Candidate.Bob */\n      0x01\n        /* \"contracts/enum1.sol\":933:953  votes[Candidate.Bob] */\n      0x02\n      dup2\n      gt\n      iszero\n      tag_54\n      jumpi\n      tag_55\n      tag_27\n      jump\t// in\n    tag_55:\n    tag_54:\n      0x02\n      dup2\n      gt\n      iszero\n      tag_56\n      jumpi\n      tag_57\n      tag_27\n      jump\t// in\n    tag_57:\n    tag_56:\n      dup2\n      mstore\n      0x20\n      add\n      swap1\n      dup2\n      mstore\n      0x20\n      add\n      0x00\n      keccak256\n      sload\n        /* \"contracts/enum1.sol\":933:978  votes[Candidate.Bob] > votes[Candidate.Alice] */\n      gt\n        /* \"contracts/enum1.sol\":933:1029  votes[Candidate.Bob] > votes[Candidate.Alice] && votes[Candidate.Bob] > votes[Candidate.Charlie] */\n      dup1\n      iszero\n      tag_58\n      jumpi\n      pop\n        /* \"contracts/enum1.sol\":1005:1010  votes */\n      0x00\n        /* \"contracts/enum1.sol\":1005:1029  votes[Candidate.Charlie] */\n      dup1\n        /* \"contracts/enum1.sol\":1011:1028  Candidate.Charlie */\n      0x02\n        /* \"contracts/enum1.sol\":1005:1029  votes[Candidate.Charlie] */\n      dup1\n      dup2\n      gt\n      iszero\n      tag_59\n      jumpi\n      tag_60\n      tag_27\n      jump\t// in\n    tag_60:\n    tag_59:\n      0x02\n      dup2\n      gt\n      iszero\n      tag_61\n      jumpi\n      tag_62\n      tag_27\n      jump\t// in\n    tag_62:\n    tag_61:\n      dup2\n      mstore\n      0x20\n      add\n      swap1\n      dup2\n      mstore\n      0x20\n      add\n      0x00\n      keccak256\n      sload\n        /* \"contracts/enum1.sol\":982:987  votes */\n      0x00\n        /* \"contracts/enum1.sol\":982:1002  votes[Candidate.Bob] */\n      dup1\n        /* \"contracts/enum1.sol\":988:1001  Candidate.Bob */\n      0x01\n        /* \"contracts/enum1.sol\":982:1002  votes[Candidate.Bob] */\n      0x02\n      dup2\n      gt\n      iszero\n      tag_63\n      jumpi\n      tag_64\n      tag_27\n      jump\t// in\n    tag_64:\n    tag_63:\n      0x02\n      dup2\n      gt\n      iszero\n      tag_65\n      jumpi\n      tag_66\n      tag_27\n      jump\t// in\n    tag_66:\n    tag_65:\n      dup2\n      mstore\n      0x20\n      add\n      swap1\n      dup2\n      mstore\n      0x20\n      add\n      0x00\n      keccak256\n      sload\n        /* \"contracts/enum1.sol\":982:1029  votes[Candidate.Bob] > votes[Candidate.Charlie] */\n      gt\n        /* \"contracts/enum1.sol\":933:1029  votes[Candidate.Bob] > votes[Candidate.Alice] && votes[Candidate.Bob] > votes[Candidate.Charlie] */\n    tag_58:\n        /* \"contracts/enum1.sol\":929:1135  if (votes[Candidate.Bob] > votes[Candidate.Alice] && votes[Candidate.Bob] > votes[Candidate.Charlie]) {... */\n      iszero\n      tag_67\n      jumpi\n        /* \"contracts/enum1.sol\":1053:1066  Candidate.Bob */\n      0x01\n        /* \"contracts/enum1.sol\":1046:1066  return Candidate.Bob */\n      swap1\n      pop\n      jump(tag_30)\n        /* \"contracts/enum1.sol\":929:1135  if (votes[Candidate.Bob] > votes[Candidate.Alice] && votes[Candidate.Bob] > votes[Candidate.Charlie]) {... */\n    tag_67:\n        /* \"contracts/enum1.sol\":1106:1123  Candidate.Charlie */\n      0x02\n        /* \"contracts/enum1.sol\":1099:1123  return Candidate.Charlie */\n      swap1\n      pop\n        /* \"contracts/enum1.sol\":706:1142  function getWinner() public view returns (Candidate) {... */\n    tag_30:\n      swap1\n      jump\t// out\n        /* \"contracts/enum1.sol\":320:465  function vote(Candidate _candidate) public {... */\n    tag_19:\n        /* \"contracts/enum1.sol\":438:443  votes */\n      0x00\n        /* \"contracts/enum1.sol\":438:455  votes[_candidate] */\n      dup1\n        /* \"contracts/enum1.sol\":444:454  _candidate */\n      dup3\n        /* \"contracts/enum1.sol\":438:455  votes[_candidate] */\n      0x02\n      dup2\n      gt\n      iszero\n      tag_70\n      jumpi\n      tag_71\n      tag_27\n      jump\t// in\n    tag_71:\n    tag_70:\n      0x02\n      dup2\n      gt\n      iszero\n      tag_72\n      jumpi\n      tag_73\n      tag_27\n      jump\t// in\n    tag_73:\n    tag_72:\n      dup2\n      mstore\n      0x20\n      add\n      swap1\n      dup2\n      mstore\n      0x20\n      add\n      0x00\n      keccak256\n      0x00\n        /* \"contracts/enum1.sol\":438:457  votes[_candidate]++ */\n      dup2\n      sload\n      dup1\n      swap3\n      swap2\n      swap1\n      tag_74\n      swap1\n      tag_75\n      jump\t// in\n    tag_74:\n      swap2\n      swap1\n      pop\n      sstore\n      pop\n        /* \"contracts/enum1.sol\":320:465  function vote(Candidate _candidate) public {... */\n      pop\n      jump\t// out\n        /* \"contracts/enum1.sol\":231:270  mapping(Candidate => uint) public votes */\n    tag_22:\n      mstore(0x20, 0x00)\n      dup1\n      0x00\n      mstore\n      keccak256(0x00, 0x40)\n      0x00\n      swap2\n      pop\n      swap1\n      pop\n      sload\n      dup2\n      jump\t// out\n        /* \"#utility.yul\":88:205   */\n    tag_77:\n        /* \"#utility.yul\":197:198   */\n      0x00\n        /* \"#utility.yul\":194:195   */\n      dup1\n        /* \"#utility.yul\":187:199   */\n      revert\n        /* \"#utility.yul\":334:444   */\n    tag_79:\n        /* \"#utility.yul\":418:419   */\n      0x03\n        /* \"#utility.yul\":411:416   */\n      dup2\n        /* \"#utility.yul\":408:420   */\n      lt\n        /* \"#utility.yul\":398:438   */\n      tag_93\n      jumpi\n        /* \"#utility.yul\":434:435   */\n      0x00\n        /* \"#utility.yul\":431:432   */\n      dup1\n        /* \"#utility.yul\":424:436   */\n      revert\n        /* \"#utility.yul\":398:438   */\n    tag_93:\n        /* \"#utility.yul\":334:444   */\n      pop\n      jump\t// out\n        /* \"#utility.yul\":450:611   */\n    tag_80:\n        /* \"#utility.yul\":507:512   */\n      0x00\n        /* \"#utility.yul\":545:551   */\n      dup2\n        /* \"#utility.yul\":532:552   */\n      calldataload\n        /* \"#utility.yul\":523:552   */\n      swap1\n      pop\n        /* \"#utility.yul\":561:605   */\n      tag_95\n        /* \"#utility.yul\":599:604   */\n      dup2\n        /* \"#utility.yul\":561:605   */\n      tag_79\n      jump\t// in\n    tag_95:\n        /* \"#utility.yul\":450:611   */\n      swap3\n      swap2\n      pop\n      pop\n      jump\t// out\n        /* \"#utility.yul\":617:968   */\n    tag_9:\n        /* \"#utility.yul\":687:693   */\n      0x00\n        /* \"#utility.yul\":736:738   */\n      0x20\n        /* \"#utility.yul\":724:733   */\n      dup3\n        /* \"#utility.yul\":715:722   */\n      dup5\n        /* \"#utility.yul\":711:734   */\n      sub\n        /* \"#utility.yul\":707:739   */\n      slt\n        /* \"#utility.yul\":704:823   */\n      iszero\n      tag_97\n      jumpi\n        /* \"#utility.yul\":742:821   */\n      tag_98\n      tag_77\n      jump\t// in\n    tag_98:\n        /* \"#utility.yul\":704:823   */\n    tag_97:\n        /* \"#utility.yul\":862:863   */\n      0x00\n        /* \"#utility.yul\":887:951   */\n      tag_99\n        /* \"#utility.yul\":943:950   */\n      dup5\n        /* \"#utility.yul\":934:940   */\n      dup3\n        /* \"#utility.yul\":923:932   */\n      dup6\n        /* \"#utility.yul\":919:941   */\n      add\n        /* \"#utility.yul\":887:951   */\n      tag_80\n      jump\t// in\n    tag_99:\n        /* \"#utility.yul\":877:951   */\n      swap2\n      pop\n        /* \"#utility.yul\":833:961   */\n      pop\n        /* \"#utility.yul\":617:968   */\n      swap3\n      swap2\n      pop\n      pop\n      jump\t// out\n        /* \"#utility.yul\":974:1051   */\n    tag_81:\n        /* \"#utility.yul\":1011:1018   */\n      0x00\n        /* \"#utility.yul\":1040:1045   */\n      dup2\n        /* \"#utility.yul\":1029:1045   */\n      swap1\n      pop\n        /* \"#utility.yul\":974:1051   */\n      swap2\n      swap1\n      pop\n      jump\t// out\n        /* \"#utility.yul\":1057:1175   */\n    tag_82:\n        /* \"#utility.yul\":1144:1168   */\n      tag_102\n        /* \"#utility.yul\":1162:1167   */\n      dup2\n        /* \"#utility.yul\":1144:1168   */\n      tag_81\n      jump\t// in\n    tag_102:\n        /* \"#utility.yul\":1139:1142   */\n      dup3\n        /* \"#utility.yul\":1132:1169   */\n      mstore\n        /* \"#utility.yul\":1057:1175   */\n      pop\n      pop\n      jump\t// out\n        /* \"#utility.yul\":1181:1403   */\n    tag_12:\n        /* \"#utility.yul\":1274:1278   */\n      0x00\n        /* \"#utility.yul\":1312:1314   */\n      0x20\n        /* \"#utility.yul\":1301:1310   */\n      dup3\n        /* \"#utility.yul\":1297:1315   */\n      add\n        /* \"#utility.yul\":1289:1315   */\n      swap1\n      pop\n        /* \"#utility.yul\":1325:1396   */\n      tag_104\n        /* \"#utility.yul\":1393:1394   */\n      0x00\n        /* \"#utility.yul\":1382:1391   */\n      dup4\n        /* \"#utility.yul\":1378:1395   */\n      add\n        /* \"#utility.yul\":1369:1375   */\n      dup5\n        /* \"#utility.yul\":1325:1396   */\n      tag_82\n      jump\t// in\n    tag_104:\n        /* \"#utility.yul\":1181:1403   */\n      swap3\n      swap2\n      pop\n      pop\n      jump\t// out\n        /* \"#utility.yul\":1409:1589   */\n    tag_27:\n        /* \"#utility.yul\":1457:1534   */\n      0x4e487b7100000000000000000000000000000000000000000000000000000000\n        /* \"#utility.yul\":1454:1455   */\n      0x00\n        /* \"#utility.yul\":1447:1535   */\n      mstore\n        /* \"#utility.yul\":1554:1558   */\n      0x21\n        /* \"#utility.yul\":1551:1552   */\n      0x04\n        /* \"#utility.yul\":1544:1559   */\n      mstore\n        /* \"#utility.yul\":1578:1582   */\n      0x24\n        /* \"#utility.yul\":1575:1576   */\n      0x00\n        /* \"#utility.yul\":1568:1583   */\n      revert\n        /* \"#utility.yul\":1595:1711   */\n    tag_83:\n        /* \"#utility.yul\":1679:1680   */\n      0x03\n        /* \"#utility.yul\":1672:1677   */\n      dup2\n        /* \"#utility.yul\":1669:1681   */\n      lt\n        /* \"#utility.yul\":1659:1705   */\n      tag_107\n      jumpi\n        /* \"#utility.yul\":1685:1703   */\n      tag_108\n      tag_27\n      jump\t// in\n    tag_108:\n        /* \"#utility.yul\":1659:1705   */\n    tag_107:\n        /* \"#utility.yul\":1595:1711   */\n      pop\n      jump\t// out\n        /* \"#utility.yul\":1717:1850   */\n    tag_84:\n        /* \"#utility.yul\":1765:1772   */\n      0x00\n        /* \"#utility.yul\":1794:1799   */\n      dup2\n        /* \"#utility.yul\":1783:1799   */\n      swap1\n      pop\n        /* \"#utility.yul\":1800:1844   */\n      tag_110\n        /* \"#utility.yul\":1838:1843   */\n      dup3\n        /* \"#utility.yul\":1800:1844   */\n      tag_83\n      jump\t// in\n    tag_110:\n        /* \"#utility.yul\":1717:1850   */\n      swap2\n      swap1\n      pop\n      jump\t// out\n        /* \"#utility.yul\":1856:1989   */\n    tag_85:\n        /* \"#utility.yul\":1915:1924   */\n      0x00\n        /* \"#utility.yul\":1948:1983   */\n      tag_112\n        /* \"#utility.yul\":1977:1982   */\n      dup3\n        /* \"#utility.yul\":1948:1983   */\n      tag_84\n      jump\t// in\n    tag_112:\n        /* \"#utility.yul\":1935:1983   */\n      swap1\n      pop\n        /* \"#utility.yul\":1856:1989   */\n      swap2\n      swap1\n      pop\n      jump\t// out\n        /* \"#utility.yul\":1995:2144   */\n    tag_86:\n        /* \"#utility.yul\":2091:2137   */\n      tag_114\n        /* \"#utility.yul\":2131:2136   */\n      dup2\n        /* \"#utility.yul\":2091:2137   */\n      tag_85\n      jump\t// in\n    tag_114:\n        /* \"#utility.yul\":2086:2089   */\n      dup3\n        /* \"#utility.yul\":2079:2138   */\n      mstore\n        /* \"#utility.yul\":1995:2144   */\n      pop\n      pop\n      jump\t// out\n        /* \"#utility.yul\":2150:2390   */\n    tag_16:\n        /* \"#utility.yul\":2252:2256   */\n      0x00\n        /* \"#utility.yul\":2290:2292   */\n      0x20\n        /* \"#utility.yul\":2279:2288   */\n      dup3\n        /* \"#utility.yul\":2275:2293   */\n      add\n        /* \"#utility.yul\":2267:2293   */\n      swap1\n      pop\n        /* \"#utility.yul\":2303:2383   */\n      tag_116\n        /* \"#utility.yul\":2380:2381   */\n      0x00\n        /* \"#utility.yul\":2369:2378   */\n      dup4\n        /* \"#utility.yul\":2365:2382   */\n      add\n        /* \"#utility.yul\":2356:2362   */\n      dup5\n        /* \"#utility.yul\":2303:2383   */\n      tag_86\n      jump\t// in\n    tag_116:\n        /* \"#utility.yul\":2150:2390   */\n      swap3\n      swap2\n      pop\n      pop\n      jump\t// out\n        /* \"#utility.yul\":2396:2576   */\n    tag_87:\n        /* \"#utility.yul\":2444:2521   */\n      0x4e487b7100000000000000000000000000000000000000000000000000000000\n        /* \"#utility.yul\":2441:2442   */\n      0x00\n        /* \"#utility.yul\":2434:2522   */\n      mstore\n        /* \"#utility.yul\":2541:2545   */\n      0x11\n        /* \"#utility.yul\":2538:2539   */\n      0x04\n        /* \"#utility.yul\":2531:2546   */\n      mstore\n        /* \"#utility.yul\":2565:2569   */\n      0x24\n        /* \"#utility.yul\":2562:2563   */\n      0x00\n        /* \"#utility.yul\":2555:2570   */\n      revert\n        /* \"#utility.yul\":2582:2815   */\n    tag_75:\n        /* \"#utility.yul\":2621:2624   */\n      0x00\n        /* \"#utility.yul\":2644:2668   */\n      tag_119\n        /* \"#utility.yul\":2662:2667   */\n      dup3\n        /* \"#utility.yul\":2644:2668   */\n      tag_81\n      jump\t// in\n    tag_119:\n        /* \"#utility.yul\":2635:2668   */\n      swap2\n      pop\n        /* \"#utility.yul\":2690:2756   */\n      0xffffffffffffffffffffffffffffffffffffffffffffffffffffffffffffffff\n        /* \"#utility.yul\":2683:2688   */\n      dup3\n        /* \"#utility.yul\":2680:2757   */\n      sub\n        /* \"#utility.yul\":2677:2780   */\n      tag_120\n      jumpi\n        /* \"#utility.yul\":2760:2778   */\n      tag_121\n      tag_87\n      jump\t// in\n    tag_121:\n        /* \"#utility.yul\":2677:2780   */\n    tag_120:\n        /* \"#utility.yul\":2807:2808   */\n      0x01\n        /* \"#utility.yul\":2800:2805   */\n      dup3\n        /* \"#utility.yul\":2796:2809   */\n      add\n        /* \"#utility.yul\":2789:2809   */\n      swap1\n      pop\n        /* \"#utility.yul\":2582:2815   */\n      swap2\n      swap1\n      pop\n      jump\t// out\n\n    auxdata: 0xa264697066735822122093fc51d9cb0742c1e75fe1b139f638fb0414506c82d5e3b5354a1ccf60cf976864736f6c634300081a0033\n}\n",
				"bytecode": {
					"linkReferences": {},
					"object": "6080604052348015600e575f80fd5b506105218061001c5f395ff3fe608060405234801561000f575f80fd5b506004361061004a575f3560e01c80638953bb721461004e5780638e7ea5b21461007e578063b3f98adc1461009c578063c1b43357146100b8575b5f80fd5b6100686004803603810190610063919061038f565b6100e8565b60405161007591906103d2565b60405180910390f35b610086610125565b604051610093919061045e565b60405180910390f35b6100b660048036038101906100b1919061038f565b610308565b005b6100d260048036038101906100cd919061038f565b610354565b6040516100df91906103d2565b60405180910390f35b5f805f8360028111156100fe576100fd6103eb565b5b60028111156101105761010f6103eb565b5b81526020019081526020015f20549050919050565b5f805f6001600281111561013c5761013b6103eb565b5b600281111561014e5761014d6103eb565b5b81526020019081526020015f20545f80806002811115610171576101706103eb565b5b6002811115610183576101826103eb565b5b81526020019081526020015f205411801561020557505f806002808111156101ae576101ad6103eb565b5b60028111156101c0576101bf6103eb565b5b81526020019081526020015f20545f808060028111156101e3576101e26103eb565b5b60028111156101f5576101f46103eb565b5b81526020019081526020015f2054115b15610212575f9050610305565b5f80806002811115610227576102266103eb565b5b6002811115610239576102386103eb565b5b81526020019081526020015f20545f806001600281111561025d5761025c6103eb565b5b600281111561026f5761026e6103eb565b5b81526020019081526020015f20541180156102f257505f8060028081111561029a576102996103eb565b5b60028111156102ac576102ab6103eb565b5b81526020019081526020015f20545f80600160028111156102d0576102cf6103eb565b5b60028111156102e2576102e16103eb565b5b81526020019081526020015f2054115b156103005760019050610305565b600290505b90565b5f8082600281111561031d5761031c6103eb565b5b600281111561032f5761032e6103eb565b5b81526020019081526020015f205f81548092919061034c906104a4565b919050555050565b5f602052805f5260405f205f915090505481565b5f80fd5b60038110610378575f80fd5b50565b5f813590506103898161036c565b92915050565b5f602082840312156103a4576103a3610368565b5b5f6103b18482850161037b565b91505092915050565b5f819050919050565b6103cc816103ba565b82525050565b5f6020820190506103e55f8301846103c3565b92915050565b7f4e487b71000000000000000000000000000000000000000000000000000000005f52602160045260245ffd5b60038110610429576104286103eb565b5b50565b5f81905061043982610418565b919050565b5f6104488261042c565b9050919050565b6104588161043e565b82525050565b5f6020820190506104715f83018461044f565b92915050565b7f4e487b71000000000000000000000000000000000000000000000000000000005f52601160045260245ffd5b5f6104ae826103ba565b91507fffffffffffffffffffffffffffffffffffffffffffffffffffffffffffffffff82036104e0576104df610477565b5b60018201905091905056fea264697066735822122093fc51d9cb0742c1e75fe1b139f638fb0414506c82d5e3b5354a1ccf60cf976864736f6c634300081a0033",
					"opcodes": "PUSH1 0x80 PUSH1 0x40 MSTORE CALLVALUE DUP1 ISZERO PUSH1 0xE JUMPI PUSH0 DUP1 REVERT JUMPDEST POP PUSH2 0x521 DUP1 PUSH2 0x1C PUSH0 CODECOPY PUSH0 RETURN INVALID PUSH1 0x80 PUSH1 0x40 MSTORE CALLVALUE DUP1 ISZERO PUSH2 0xF JUMPI PUSH0 DUP1 REVERT JUMPDEST POP PUSH1 0x4 CALLDATASIZE LT PUSH2 0x4A JUMPI PUSH0 CALLDATALOAD PUSH1 0xE0 SHR DUP1 PUSH4 0x8953BB72 EQ PUSH2 0x4E JUMPI DUP1 PUSH4 0x8E7EA5B2 EQ PUSH2 0x7E JUMPI DUP1 PUSH4 0xB3F98ADC EQ PUSH2 0x9C JUMPI DUP1 PUSH4 0xC1B43357 EQ PUSH2 0xB8 JUMPI JUMPDEST PUSH0 DUP1 REVERT JUMPDEST PUSH2 0x68 PUSH1 0x4 DUP1 CALLDATASIZE SUB DUP2 ADD SWAP1 PUSH2 0x63 SWAP2 SWAP1 PUSH2 0x38F JUMP JUMPDEST PUSH2 0xE8 JUMP JUMPDEST PUSH1 0x40 MLOAD PUSH2 0x75 SWAP2 SWAP1 PUSH2 0x3D2 JUMP JUMPDEST PUSH1 0x40 MLOAD DUP1 SWAP2 SUB SWAP1 RETURN JUMPDEST PUSH2 0x86 PUSH2 0x125 JUMP JUMPDEST PUSH1 0x40 MLOAD PUSH2 0x93 SWAP2 SWAP1 PUSH2 0x45E JUMP JUMPDEST PUSH1 0x40 MLOAD DUP1 SWAP2 SUB SWAP1 RETURN JUMPDEST PUSH2 0xB6 PUSH1 0x4 DUP1 CALLDATASIZE SUB DUP2 ADD SWAP1 PUSH2 0xB1 SWAP2 SWAP1 PUSH2 0x38F JUMP JUMPDEST PUSH2 0x308 JUMP JUMPDEST STOP JUMPDEST PUSH2 0xD2 PUSH1 0x4 DUP1 CALLDATASIZE SUB DUP2 ADD SWAP1 PUSH2 0xCD SWAP2 SWAP1 PUSH2 0x38F JUMP JUMPDEST PUSH2 0x354 JUMP JUMPDEST PUSH1 0x40 MLOAD PUSH2 0xDF SWAP2 SWAP1 PUSH2 0x3D2 JUMP JUMPDEST PUSH1 0x40 MLOAD DUP1 SWAP2 SUB SWAP1 RETURN JUMPDEST PUSH0 DUP1 PUSH0 DUP4 PUSH1 0x2 DUP2 GT ISZERO PUSH2 0xFE JUMPI PUSH2 0xFD PUSH2 0x3EB JUMP JUMPDEST JUMPDEST PUSH1 0x2 DUP2 GT ISZERO PUSH2 0x110 JUMPI PUSH2 0x10F PUSH2 0x3EB JUMP JUMPDEST JUMPDEST DUP2 MSTORE PUSH1 0x20 ADD SWAP1 DUP2 MSTORE PUSH1 0x20 ADD PUSH0 KECCAK256 SLOAD SWAP1 POP SWAP2 SWAP1 POP JUMP JUMPDEST PUSH0 DUP1 PUSH0 PUSH1 0x1 PUSH1 0x2 DUP2 GT ISZERO PUSH2 0x13C JUMPI PUSH2 0x13B PUSH2 0x3EB JUMP JUMPDEST JUMPDEST PUSH1 0x2 DUP2 GT ISZERO PUSH2 0x14E JUMPI PUSH2 0x14D PUSH2 0x3EB JUMP JUMPDEST JUMPDEST DUP2 MSTORE PUSH1 0x20 ADD SWAP1 DUP2 MSTORE PUSH1 0x20 ADD PUSH0 KECCAK256 SLOAD PUSH0 DUP1 DUP1 PUSH1 0x2 DUP2 GT ISZERO PUSH2 0x171 JUMPI PUSH2 0x170 PUSH2 0x3EB JUMP JUMPDEST JUMPDEST PUSH1 0x2 DUP2 GT ISZERO PUSH2 0x183 JUMPI PUSH2 0x182 PUSH2 0x3EB JUMP JUMPDEST JUMPDEST DUP2 MSTORE PUSH1 0x20 ADD SWAP1 DUP2 MSTORE PUSH1 0x20 ADD PUSH0 KECCAK256 SLOAD GT DUP1 ISZERO PUSH2 0x205 JUMPI POP PUSH0 DUP1 PUSH1 0x2 DUP1 DUP2 GT ISZERO PUSH2 0x1AE JUMPI PUSH2 0x1AD PUSH2 0x3EB JUMP JUMPDEST JUMPDEST PUSH1 0x2 DUP2 GT ISZERO PUSH2 0x1C0 JUMPI PUSH2 0x1BF PUSH2 0x3EB JUMP JUMPDEST JUMPDEST DUP2 MSTORE PUSH1 0x20 ADD SWAP1 DUP2 MSTORE PUSH1 0x20 ADD PUSH0 KECCAK256 SLOAD PUSH0 DUP1 DUP1 PUSH1 0x2 DUP2 GT ISZERO PUSH2 0x1E3 JUMPI PUSH2 0x1E2 PUSH2 0x3EB JUMP JUMPDEST JUMPDEST PUSH1 0x2 DUP2 GT ISZERO PUSH2 0x1F5 JUMPI PUSH2 0x1F4 PUSH2 0x3EB JUMP JUMPDEST JUMPDEST DUP2 MSTORE PUSH1 0x20 ADD SWAP1 DUP2 MSTORE PUSH1 0x20 ADD PUSH0 KECCAK256 SLOAD GT JUMPDEST ISZERO PUSH2 0x212 JUMPI PUSH0 SWAP1 POP PUSH2 0x305 JUMP JUMPDEST PUSH0 DUP1 DUP1 PUSH1 0x2 DUP2 GT ISZERO PUSH2 0x227 JUMPI PUSH2 0x226 PUSH2 0x3EB JUMP JUMPDEST JUMPDEST PUSH1 0x2 DUP2 GT ISZERO PUSH2 0x239 JUMPI PUSH2 0x238 PUSH2 0x3EB JUMP JUMPDEST JUMPDEST DUP2 MSTORE PUSH1 0x20 ADD SWAP1 DUP2 MSTORE PUSH1 0x20 ADD PUSH0 KECCAK256 SLOAD PUSH0 DUP1 PUSH1 0x1 PUSH1 0x2 DUP2 GT ISZERO PUSH2 0x25D JUMPI PUSH2 0x25C PUSH2 0x3EB JUMP JUMPDEST JUMPDEST PUSH1 0x2 DUP2 GT ISZERO PUSH2 0x26F JUMPI PUSH2 0x26E PUSH2 0x3EB JUMP JUMPDEST JUMPDEST DUP2 MSTORE PUSH1 0x20 ADD SWAP1 DUP2 MSTORE PUSH1 0x20 ADD PUSH0 KECCAK256 SLOAD GT DUP1 ISZERO PUSH2 0x2F2 JUMPI POP PUSH0 DUP1 PUSH1 0x2 DUP1 DUP2 GT ISZERO PUSH2 0x29A JUMPI PUSH2 0x299 PUSH2 0x3EB JUMP JUMPDEST JUMPDEST PUSH1 0x2 DUP2 GT ISZERO PUSH2 0x2AC JUMPI PUSH2 0x2AB PUSH2 0x3EB JUMP JUMPDEST JUMPDEST DUP2 MSTORE PUSH1 0x20 ADD SWAP1 DUP2 MSTORE PUSH1 0x20 ADD PUSH0 KECCAK256 SLOAD PUSH0 DUP1 PUSH1 0x1 PUSH1 0x2 DUP2 GT ISZERO PUSH2 0x2D0 JUMPI PUSH2 0x2CF PUSH2 0x3EB JUMP JUMPDEST JUMPDEST PUSH1 0x2 DUP2 GT ISZERO PUSH2 0x2E2 JUMPI PUSH2 0x2E1 PUSH2 0x3EB JUMP JUMPDEST JUMPDEST DUP2 MSTORE PUSH1 0x20 ADD SWAP1 DUP2 MSTORE PUSH1 0x20 ADD PUSH0 KECCAK256 SLOAD GT JUMPDEST ISZERO PUSH2 0x300 JUMPI PUSH1 0x1 SWAP1 POP PUSH2 0x305 JUMP JUMPDEST PUSH1 0x2 SWAP1 POP JUMPDEST SWAP1 JUMP JUMPDEST PUSH0 DUP1 DUP3 PUSH1 0x2 DUP2 GT ISZERO PUSH2 0x31D JUMPI PUSH2 0x31C PUSH2 0x3EB JUMP JUMPDEST JUMPDEST PUSH1 0x2 DUP2 GT ISZERO PUSH2 0x32F JUMPI PUSH2 0x32E PUSH2 0x3EB JUMP JUMPDEST JUMPDEST DUP2 MSTORE PUSH1 0x20 ADD SWAP1 DUP2 MSTORE PUSH1 0x20 ADD PUSH0 KECCAK256 PUSH0 DUP2 SLOAD DUP1 SWAP3 SWAP2 SWAP1 PUSH2 0x34C SWAP1 PUSH2 0x4A4 JUMP JUMPDEST SWAP2 SWAP1 POP SSTORE POP POP JUMP JUMPDEST PUSH0 PUSH1 0x20 MSTORE DUP1 PUSH0 MSTORE PUSH1 0x40 PUSH0 KECCAK256 PUSH0 SWAP2 POP SWAP1 POP SLOAD DUP2 JUMP JUMPDEST PUSH0 DUP1 REVERT JUMPDEST PUSH1 0x3 DUP2 LT PUSH2 0x378 JUMPI PUSH0 DUP1 REVERT JUMPDEST POP JUMP JUMPDEST PUSH0 DUP2 CALLDATALOAD SWAP1 POP PUSH2 0x389 DUP2 PUSH2 0x36C JUMP JUMPDEST SWAP3 SWAP2 POP POP JUMP JUMPDEST PUSH0 PUSH1 0x20 DUP3 DUP5 SUB SLT ISZERO PUSH2 0x3A4 JUMPI PUSH2 0x3A3 PUSH2 0x368 JUMP JUMPDEST JUMPDEST PUSH0 PUSH2 0x3B1 DUP5 DUP3 DUP6 ADD PUSH2 0x37B JUMP JUMPDEST SWAP2 POP POP SWAP3 SWAP2 POP POP JUMP JUMPDEST PUSH0 DUP2 SWAP1 POP SWAP2 SWAP1 POP JUMP JUMPDEST PUSH2 0x3CC DUP2 PUSH2 0x3BA JUMP JUMPDEST DUP3 MSTORE POP POP JUMP JUMPDEST PUSH0 PUSH1 0x20 DUP3 ADD SWAP1 POP PUSH2 0x3E5 PUSH0 DUP4 ADD DUP5 PUSH2 0x3C3 JUMP JUMPDEST SWAP3 SWAP2 POP POP JUMP JUMPDEST PUSH32 0x4E487B7100000000000000000000000000000000000000000000000000000000 PUSH0 MSTORE PUSH1 0x21 PUSH1 0x4 MSTORE PUSH1 0x24 PUSH0 REVERT JUMPDEST PUSH1 0x3 DUP2 LT PUSH2 0x429 JUMPI PUSH2 0x428 PUSH2 0x3EB JUMP JUMPDEST JUMPDEST POP JUMP JUMPDEST PUSH0 DUP2 SWAP1 POP PUSH2 0x439 DUP3 PUSH2 0x418 JUMP JUMPDEST SWAP2 SWAP1 POP JUMP JUMPDEST PUSH0 PUSH2 0x448 DUP3 PUSH2 0x42C JUMP JUMPDEST SWAP1 POP SWAP2 SWAP1 POP JUMP JUMPDEST PUSH2 0x458 DUP2 PUSH2 0x43E JUMP JUMPDEST DUP3 MSTORE POP POP JUMP JUMPDEST PUSH0 PUSH1 0x20 DUP3 ADD SWAP1 POP PUSH2 0x471 PUSH0 DUP4 ADD DUP5 PUSH2 0x44F JUMP JUMPDEST SWAP3 SWAP2 POP POP JUMP JUMPDEST PUSH32 0x4E487B7100000000000000000000000000000000000000000000000000000000 PUSH0 MSTORE PUSH1 0x11 PUSH1 0x4 MSTORE PUSH1 0x24 PUSH0 REVERT JUMPDEST PUSH0 PUSH2 0x4AE DUP3 PUSH2 0x3BA JUMP JUMPDEST SWAP2 POP PUSH32 0xFFFFFFFFFFFFFFFFFFFFFFFFFFFFFFFFFFFFFFFFFFFFFFFFFFFFFFFFFFFFFFFF DUP3 SUB PUSH2 0x4E0 JUMPI PUSH2 0x4DF PUSH2 0x477 JUMP JUMPDEST JUMPDEST PUSH1 0x1 DUP3 ADD SWAP1 POP SWAP2 SWAP1 POP JUMP INVALID LOG2 PUSH5 0x6970667358 0x22 SLT KECCAK256 SWAP4 0xFC MLOAD 0xD9 0xCB SMOD TIMESTAMP 0xC1 0xE7 PUSH0 0xE1 0xB1 CODECOPY 0xF6 CODESIZE 0xFB DIV EQ POP PUSH13 0x82D5E3B5354A1CCF60CF976864 PUSH20 0x6F6C634300081A00330000000000000000000000 "
				},
				"gasEstimates": {
					"creation": {
						"codeDepositCost": "262600",
						"executionCost": "304",
						"totalCost": "262904"
					},
					"external": {
						"getVotes(uint8)": "2757",
						"getWinner()": "18375",
						"vote(uint8)": "24863",
						"votes(uint8)": "2755"
					}
				},
				"methodIdentifiers": {
					"getVotes(uint8)": "8953bb72",
					"getWinner()": "8e7ea5b2",
					"vote(uint8)": "b3f98adc",
					"votes(uint8)": "c1b43357"
				}
			},
			"storageLayout": {
				"storage": [
					{
						"astId": 10,
						"contract": "contracts/enum1.sol:Voting",
						"label": "votes",
						"offset": 0,
						"slot": "0",
						"type": "t_mapping(t_enum(Candidate)5,t_uint256)"
					}
				],
				"types": {
					"t_enum(Candidate)5": {
						"encoding": "inplace",
						"label": "enum Voting.Candidate",
						"numberOfBytes": "1"
					},
					"t_mapping(t_enum(Candidate)5,t_uint256)": {
						"encoding": "mapping",
						"key": "t_enum(Candidate)5",
						"label": "mapping(enum Voting.Candidate => uint256)",
						"numberOfBytes": "32",
						"value": "t_uint256"
					},
					"t_uint256": {
						"encoding": "inplace",
						"label": "uint256",
						"numberOfBytes": "32"
					}
				}
			},
			"userdoc": {
				"kind": "user",
				"methods": {},
				"version": 1
			}
		}
	}
}